:020000040800F2
:100000006040002095000008A30100084501000899
:1000100000F002F800F02CF80AA090E8000C8244EE
:100020008344AAF10107DA4501D100F021F8AFF2CB
:10003000090EBAE80F0013F0010F18BFFB1A43F0C6
:100040000103184790030000A003000000230024D0
:1000500000250026103A28BF78C1FBD8520728BFD8
:1000600030C148BF0B6070471FB51FBD10B510BD34
:1000700000F016F81146FFF7F7FF00F093F800F0D4
:1000800034F803B4FFF7F2FF03BC00F055F80000AA
:100090008546084701480047FEE7FEE7A50100083E
:1000A000754600F02BF8AE4605006946534620F031
:1000B0000700854618B020B500F024F8BDE82040C0
:1000C0004FF000064FF000074FF000084FF0000B14
:1000D00021F00701AC46ACE8C009ACE8C009ACE8C7
:1000E000C009ACE8C0098D46704710B50446AFF3AF
:1000F00000802046BDE81040FFF7C3BF00487047AE
:100100000000002000B54FF0160085B0694601AA36
:100110000A60ABBE0198002802BF0548C01D20F050
:1001200007000399029A049B05B000BD0900000076
:10013000000000007047000001491820ABBEFEE738
:1001400026000200FEE70000044908B5CA69024320
:10015000CA61C9690140009108BD00000010024059
:10016000044908B58A6902438A618969014000919E
:1001700008BD00000010024030B591FAA1F400EB78
:100180001160B4FA84F4A5000F24AC4091FAA1F1F7
:100190000368B1FA81F18900A3438A4013430360E5
:1001A00030BDFEE71FB572B60120FFF7D9FF4FF053
:1001B0008050FFF7C9FF3D48416941F0400141616E
:1001C00041694FF0082201F04001009138490024B4
:1001D0004AF25A5300E010310D889D4202D19142FB
:1001E000F9D34AE0914248D20094019402940394D6
:1001F0008A884FF0006505EB82220092CA8892023D
:1002000001920A8905EB82220292498989020391AF
:10021000466A416A41F0807141620098A0F1006035
:10022000B0F5803F29D223490298884225D2A842BE
:1002300023D3684600F044F8F8B9F00014D52846F6
:10024000FFF782FF1C48006880B2B0F5817F04D0C0
:10025000A0F50070013807D101E0029800E0009895
:1002600001690068FFF714FF4FF00C40B04304D160
:10027000029801690068FFF70BFF00F05DF80F4876
:100280008DF8004069460268C2F34012002AFAD095
:1002900042680A7000220368C3F38013002BFAD06F
:1002A00011F8013B4360521EF5D2E9E7001002400D
:1002B0000004000800000108046C00400038014000
:1002C0002DE9FF43014600200A6800928A680192E6
:1002D0004A680292C9680391164A01464FF0FF38F6
:1002E0006B460DF10809946844F00104946059F8D4
:1002F0002160002408EB960C07E000BF53F8217042
:1003000020CF156043F82170641CA445F6D853F83B
:10031000214015683444241F24F00404A54203D06E
:1003200001248C400443E0B2491C0229DBDB04B009
:10033000BDE8F0830030024070B54FF48040FFF715
:100340000FFF0420FFF70CFF1E4C1F4D0922214612
:100350002846FFF711FF2A1D94FAA4F0B0FA80F0A6
:1003600083000320116800FA03F3994394FAA4F37D
:10037000B3FA83F39B00984094FAA4F3B3FA83F39F
:100380009E0001430423B340994394FAA4F3B3FAC3
:1003900083F300209B0098400143116004220B4925
:1003A0002846FFF7E9FE0A4942F20C0008600020E7
:1003B000091D0860091D086005494520091F0860DE
:1003C00070BD0000020002040008014004000404A3
:1003D0000C380140E40300080000002060400000E9
:0403E0004C000008C5
:0400000508000011DE
:00000001FF
