:020000040800F2
:100000006003002095000008F30100089501000836
:1000100000F002F800F02CF80AA090E8000C8244EE
:100020008344AAF10107DA4501D100F021F8AFF2CB
:10003000090EBAE80F0013F0010F18BFFB1A43F0C6
:1000400001031847040400001404000000230024E6
:1000500000250026103A28BF78C1FBD8520728BFD8
:1000600030C148BF0B6070471FB51FBD10B510BD34
:1000700000F03DF81146FFF7F7FF00F0BBF800F085
:100080005BF803B4FFF7F2FF03BC00F07DF800005B
:100090008546084701480047FEE7FEE7F5010008EE
:1000A0004FF0000200B5134694469646203922BF11
:1000B000A0E80C50A0E80C50B1F12001BFF4F7AF5C
:1000C000090728BFA0E80C5048BF0CC05DF804EB3E
:1000D000890028BF40F8042B08BF704748BF20F8AC
:1000E000022B11F0804F18BF00F8012B70477546A6
:1000F00000F02CF8AE4605006946534620F0070094
:10010000854618B020B500F025F8BDE820404FF036
:1001100000064FF000074FF000084FF0000B21F0F1
:100120000701AC46ACE8C009ACE8C009ACE8C009BE
:10013000ACE8C0098D46704710B50446AFF30080A7
:100140002046BDE81040FFF79CBF00000048704704
:100150000000002000B54FF0160085B0694601AAE6
:100160000A60ABBE0198002802BF0548C01D20F000
:1001700007000399029A049B05B000BD0900000026
:10018000000000007047000001491820ABBEFEE7E8
:1001900026000200FEE70000044908B5CA690243D0
:1001A000CA61C9690140009108BD00000010024009
:1001B000044908B58A6902438A618969014000914E
:1001C00008BD00000010024030B591FAA1F400EB28
:1001D0001160B4FA84F4A5000F24AC4091FAA1F1A7
:1001E0000368B1FA81F18900A3438A401343036095
:1001F00030BDFEE7ADF5016D72B60120FFF7D8FF07
:100200004FF08050FFF7C8FF3E4A506940F0400071
:10021000506150693C4900F0400000904FF00820C8
:1002200000244AF25A5300E010310D889D4202D159
:100230008142F9D34AE0814248D200940194029469
:10024000039488884FF0006505EB80200090C888F3
:1002500080020190088905EB802002904889800285
:100260000390566A506A40F0807050620098A0F186
:100270000060B0F5803F29D224490298884225D2F7
:10028000A84223D3684600F049F8F8B9F00014D525
:100290002846FFF781FF1E48006880B2B0F5817FD5
:1002A00004D0A0F50070013807D101E0029800E009
:1002B000009801690068FFF7EBFE4FF00C40B04377
:1002C00004D1029801690068FFF7E2FE00F062F8CD
:1002D000104D114E4FF4016802AF41466846FFF7DA
:1002E000DFFE06E00094082269463046019400F0E3
:1002F0009FF80098A842F5D139463046019A00F09F
:1003000097F8EAE700100240000400080000010826
:10031000046C0040454B527E003801402DE9FF43FC
:10032000014600200A6800928A6801924A68029297
:10033000C9680391164A01464FF0FF386B460DF12C
:100340000809946844F00104946059F8216000247D
:1003500008EB960C07E000BF53F8217020CF156022
:1003600043F82170641CA445F6D853F82140156861
:100370003444241F24F00404A54203D001248C40FB
:100380000443E0B2491C0229DBDB04B0BDE8F08382
:100390000030024070B54FF48040FFF709FF0420A1
:1003A000FFF706FF1E4C1F4D092221462846FFF786
:1003B0000BFF2A1D94FAA4F0B0FA80F0830003200A
:1003C000116800FA03F3994394FAA4F3B3FA83F3A0
:1003D0009B00984094FAA4F3B3FA83F39E00014380
:1003E0000423B340994394FAA4F3B3FA83F30020AF
:1003F0009B0098400143116004220B492846FFF7F7
:10040000E3FE0A4942F20C0008600020091D086062
:10041000091D086005494520091F086070BD0000DE
:100420000200020400080140040004040C380140EA
:1004300007E00368C3F34013002BFAD0436801F8C8
:10044000013B521EF5D270475804000800000020FE
:08045000600300004C000008ED
:0400000508000011DE
:00000001FF
