:020000040800F2
:10000000005000204903000845030008470300088A
:1000100007E0036813F0400FFBD011F8013B436089
:10002000624602F1FF3C002AF3D17047044B1B6883
:1000300013F0200FFAD0024B5B680B70704700BFC3
:100040000038014010B485B00346002002900390B0
:10005000009001901A6802929A6803925A6800927E
:10006000DB68019384462AE004AB03EB8C0353F86E
:10007000082C1468184A146053F8082C043243F80A
:10008000082C013104AB03EB8C0353F8102C9308BC
:10009000013B8B42E8D804AB03EB8C0353F8083CDC
:1000A0001A44043A22F004020B4B1B689A4204D013
:1000B000012303FA0CF30343D8B20CF1010CBCF199
:1000C000010F06DC044A936843F0010393600021AA
:1000D000D8E705B010BC70470030024010B54FEAB9
:1000E000116E50F80E3091FAA1FCBCFA8CFC4FEA6C
:1000F0008C0C032404FA0CFC23EA0C0391FAA1F102
:10010000B1FA81F189008A40134340F80E3010BDE6
:1001100010B54FEA116E50F80E3091FAA1FCBCFAFE
:100120008CFC4FEA8C0C042404FA0CFC23EA0C032C
:1001300091FAA1F1B1FA81F189008A40134340F8A4
:100140000E3010BD10B54FEA116E50F80E3091FA16
:10015000A1FCBCFA8CFC4FEA8C0C0F2404FA0CFCBA
:1001600023EA0C0391FAA1F1B1FA81F189008A40E6
:10017000134340F80E3010BD30B583B0194B9A6967
:1001800042F480429A619A6902F480420192019A93
:100190009A6942F004029A619B6903F00403009398
:1001A000009B114D114C092229462046FFF7CAFF3A
:1001B000032229462046FFF791FF002229462046C8
:1001C000FFF7A6FF04220A492046FFF7BBFF094BB1
:1001D00042F20C02DA6000221A615A6145229A60EA
:1001E00003B030BD001002400200020400080140CC
:1001F00004000404003801408546084770470000A9
:1002000010B588B072B64A4B9A6942F001029A6101
:100210009A6902F001020292029ADA6942F080526F
:10022000DA61DA6902F080520192019A5A6942F069
:1002300040025A615B6903F040030093009B3D4B11
:1002400000E0103319884AF25A52914202D1B3F1B8
:10025000082FF6D3B3F1082F25D20022049205927D
:10026000069207929A8802F5003292020492D98887
:1002700089020591198901F50031890206915B898E
:100280009B0207932A4B5C6A586A40F08070586260
:1002900002F17842B2F5803F05D2274B994202D84D
:1002A000B1F1006F10D2FFF767FF00238DF8103017
:1002B000224C012204A92046FFF7B8FE012204A91E
:1002C0002046FFF7A5FEF0E704A8FFF7BBFE0028D5
:1002D000E9D114F0805F14D0154BDA6942F0006266
:1002E000DA61DB6903F000630393039B144BD3F8DB
:1002F000043C9BB2B3F5817F0ED040F201229342C1
:1003000010D004F00C44B4F10C4FCCD1069B196909
:100310001868FFF771FFC6E7069B19691868FFF7B1
:100320006BFFEEE7049B19691868FFF765FFE8E7C4
:100330000010024000040008FFFF000800380140E0
:1003400000600040FEE7FEE7FFF75AFF704700003D
:04035000F8B500BF3D
:04035400F8B500BF39
:0400000508000349A3
:00000001FF
